:020000040800F2
:100000000050002061130008F1120008F3120008EC
:10001000F5120008F7120008F912000800000000AD
:10002000000000000000000000000000FB120008BB
:10003000FD12000800000000FF1200080113000874
:10004000A9130008A9130008A9130008A9130008A0
:10005000A9130008A9130008A9130008A913000890
:10006000A9130008A9130008A91300080513000824
:10007000A9130008A9130008A9130008A913000870
:10008000A9130008A913000811130008A9130008F8
:10009000A9130008A9130008A9130008A913000850
:1000A000A9130008A9130008A9130008A913000840
:1000B000A9130008A9130008A9130008A913000830
:1000C000A9130008A9130008A9130008A913000820
:1000D000A9130008A9130008A9130008A913000810
:1000E000A9130008A9130008A913000800000000C4
:1000F0000000000000000000000000000000000000
:0C01000000000000000000005FF808F1A3
:1001100010B5054C237833B9044B13B10448AFF341
:1001200000800123237010BDDC01002000000000CE
:10013000CC46000808B5034B1BB103490348AFF395
:10014000008008BD00000000E0010020CC4600084F
:10015000034613F8012B002AFBD1181A0138704707
:1001600081F0004102E000BF83F0004330B54FEA68
:1001700041044FEA430594EA050F08BF90EA020FD5
:100180001FBF54EA000C55EA020C7FEA645C7FEA68
:10019000655C00F0E2804FEA5454D4EB5555B8BF8B
:1001A0006D420CDD2C4480EA020281EA030382EAFC
:1001B000000083EA010180EA020281EA0303362D8E
:1001C00088BF30BD11F0004F4FEA01314FF4801C61
:1001D0004CEA113102D0404261EB410113F0004F73
:1001E0004FEA03334CEA133302D0524263EB43032A
:1001F00094EA050F00F0A780A4F10104D5F1200EC8
:100200000DDB02FA0EFC22FA05F2801841F1000122
:1002100003FA0EF2801843FA05F359410EE0A5F1F6
:1002200020050EF1200E012A03FA0EFC28BF4CF027
:10023000020C43FA05F3C01851EBE37101F00045DD
:1002400007D54FF0000EDCF1000C7EEB00006EEBEA
:100250000101B1F5801F1BD3B1F5001F0CD3490874
:100260005FEA30004FEA3C0C04F101044FEA4452CB
:1002700012F5800F80F09A80BCF1004F08BF5FEA52
:10028000500C50F1000041EB045141EA050130BD32
:100290005FEA4C0C404141EB010111F4801FA4F1D5
:1002A0000104E9D191F0000F04BF01460020B1FA2A
:1002B00081F308BF2033A3F10B03B3F120020CDA62
:1002C0000C3208DD02F1140CC2F10C0201FA0CF040
:1002D00021FA02F10CE002F11402D8BFC2F1200CA5
:1002E00001FA02F120FA0CFCDCBF41EA0C0190405B
:1002F000E41AA2BF01EB0451294330BD6FEA0404A4
:100300001F3C1CDA0C340EDC04F11404C4F120028E
:1003100020FA04F001FA02F340EA030021FA04F3A0
:1003200045EA030130BDC4F10C04C4F1200220FAF7
:1003300002F001FA04F340EA0300294630BD21FA35
:1003400004F0294630BD94F0000F83F4801306BFFB
:1003500081F480110134013D4EE77FEA645C18BFEF
:100360007FEA655C29D094EA050F08BF90EA020F86
:1003700005D054EA000C04BF1946104630BD91EA7E
:10038000030F1EBF0021002030BD5FEA545C05D181
:100390004000494128BF41F0004130BD14F58004C0
:1003A0003CBF01F5801130BD01F0004545F0FE4134
:1003B00041F470014FF0000030BD7FEA645C1ABF69
:1003C000194610467FEA655C1CBF0B46024650EAA0
:1003D000013406BF52EA033591EA030F41F40021CC
:1003E00030BD00BF90F0000F04BF0021704730B552
:1003F0004FF4806404F132044FF000054FF0000127
:1004000050E700BF90F0000F04BF0021704730B5E7
:100410004FF4806404F1320410F0004548BF4042BC
:100420004FF000013EE700BF42004FEAE2014FEA11
:1004300031014FEA02701FBF12F07F4393F07F4FEC
:1004400081F06051704732F07F4208BF704793F0EF
:100450007F4F04BF41F40021704730B54FF4607402
:1004600001F0004521F000411CE700BF50EA010205
:1004700008BF704730B54FF000050AE050EA0102AE
:1004800008BF704730B511F0004502D5404261EB1E
:1004900041014FF4806404F132045FEA915C3FF45F
:1004A000D8AE4FF003025FEADC0C18BF03325FEAFC
:1004B000DC0C18BF033202EBDC02C2F1200300FAAD
:1004C00003FC20FA02F001FA03FE40EA0E0021FAD2
:1004D00002F11444BDE600BF70B54FF0FF0C4CF4C0
:1004E000E06C1CEA11541DBF1CEA135594EA0C0F72
:1004F00095EA0C0F00F0DEF82C4481EA030621EAAD
:100500004C5123EA4C5350EA013518BF52EA0335E7
:1005100041F4801143F4801338D0A0FB02CE4FF099
:100520000005E1FB02E506F00042E0FB03E54FF0C9
:100530000006E1FB03569CF0000F18BF4EF0010EC1
:10054000A4F1FF04B6F5007F64F5407404D25FEABD
:100550004E0E6D4146EB060642EAC62141EA555170
:100560004FEAC52040EA5E504FEACE2EB4F1FD0CB2
:1005700088BFBCF5E06F1ED8BEF1004F08BF5FEA30
:10058000500E50F1000041EB045170BD06F00046E2
:1005900046EA010140EA020081EA0301B4EB5C048F
:1005A000C2BFD4EB0C0541EA045170BD41F4801187
:1005B0004FF0000E013C00F3AB8014F1360FDEBFAC
:1005C000002001F0004170BDC4F10004203C35DA88
:1005D0000C341BDC04F11404C4F1200500FA05F30B
:1005E00020FA04F001FA05F240EA020001F00042AC
:1005F00021F0004110EBD37021FA04F642EB060122
:100600005EEA430E08BF20EAD37070BDC4F10C044B
:10061000C4F1200500FA04F320FA05F001FA04F20F
:1006200040EA020001F0004110EBD37041F10001FB
:100630005EEA430E08BF20EAD37070BDC4F1200506
:1006400000FA05F24EEA020E20FA04F301FA05F26E
:1006500043EA020321FA04F001F0004121FA04F216
:1006600020EA020000EBD3705EEA430E08BF20EAE6
:10067000D37070BD94F0000F0FD101F00046400020
:1006800041EB010111F4801F08BF013CF7D041EAA2
:10069000060195F0000F18BF704703F000465200A6
:1006A00043EB030313F4801F08BF013DF7D043EA77
:1006B0000603704794EA0C0F0CEA135518BF95EA2D
:1006C0000C0F0CD050EA410618BF52EA4306D1D1B4
:1006D00081EA030101F000414FF0000070BD50EAD3
:1006E000410606BF1046194652EA430619D094EA5D
:1006F0000C0F02D150EA013613D195EA0C0F05D147
:1007000052EA03361CBF104619460AD181EA03019A
:1007100001F0004141F0FE4141F470014FF0000052
:1007200070BD41F0FE4141F4780170BD70B54FF0ED
:10073000FF0C4CF4E06C1CEA11541DBF1CEA13556D
:1007400094EA0C0F95EA0C0F00F0A7F8A4EB05044F
:1007500081EA030E52EA03354FEA013100F0888046
:100760004FEA03334FF0805545EA131343EA12630F
:100770004FEA022245EA111545EA10654FEA0026C4
:100780000EF000419D4208BF964244F1FD0404F57D
:10079000407402D25B084FEA3202B61A65EB0305D9
:1007A0005B084FEA32024FF480104FF4002CB6EB96
:1007B000020E75EB030E22BFB61A754640EA0C0016
:1007C0005B084FEA3202B6EB020E75EB030E22BF56
:1007D000B61A754640EA5C005B084FEA3202B6EB97
:1007E000020E75EB030E22BFB61A754640EA9C0056
:1007F0005B084FEA3202B6EB020E75EB030E22BF26
:10080000B61A754640EADC0055EA060E18D04FEAE3
:10081000051545EA16754FEA06164FEAC30343EA83
:1008200052734FEAC2025FEA1C1CC0D111F4801F50
:100830000BD141EA00014FF000004FF0004CB6E749
:1008400011F4801F04BF01430020B4F1FD0C88BFE8
:10085000BCF5E06F3FF6AFAEB5EB030C04BFB6EBF3
:10086000020C5FEA500C50F1000041EB045170BDE6
:100870000EF0004E4EEA113114EB5C04C2BFD4EB13
:100880000C0541EA045170BD41F480114FF0000E97
:10089000013C90E645EA060E8DE60CEA135594EA13
:1008A0000C0F08BF95EA0C0F3FF43BAF94EA0C0F16
:1008B0000AD150EA01347FF434AF95EA0C0F7FF48B
:1008C00025AF104619462CE795EA0C0F06D152EADF
:1008D00003353FF4FDAE1046194622E750EA4106C3
:1008E00018BF52EA43067FF4C5AE50EA41047FF4D4
:1008F0000DAF52EA43057FF4EBAE12E74FF0FF3C39
:1009000006E000BF4FF0010C02E000BF4FF0010C09
:100910004DF804CD4FEA410C7FEA6C5C4FEA430C82
:1009200018BF7FEA6C5C1BD001B050EA410C0CBFD1
:1009300052EA430C91EA030F02BF90EA020F002033
:10094000704710F1000F91EA030F58BF994208BF9A
:1009500090422CBFD8176FEAE37040F00100704757
:100960004FEA410C7FEA6C5C02D150EA013C07D1AE
:100970004FEA430C7FEA6C5CD6D152EA033CD3D0F9
:100980005DF8040B704700BF8446104662468C46F3
:100990001946634600E000BF01B5FFF7B7FF002826
:1009A00048BF10F1000F01BD4DF808EDFFF7F4FF4F
:1009B0000CBF012000205DF808FB00BF4DF808EDDA
:1009C000FFF7EAFF34BF012000205DF808FB00BFFD
:1009D0004DF808EDFFF7E0FF94BF012000205DF81F
:1009E00008FB00BF4DF808EDFFF7CEFF94BF0120D4
:1009F00000205DF808FB00BF4DF808EDFFF7C4FFCD
:100A000034BF012000205DF808FB00BF4FEA410C15
:100A10007FEA6C5C02D150EA013C0AD14FEA430CF8
:100A20007FEA6C5C02D152EA033C02D14FF0000035
:100A300070474FF0010070474FEA410212F5001273
:100A400015D211D56FF47873B3EB625212D94FEA15
:100A5000C12343F0004343EA505311F0004F23FAFF
:100A600002F018BF404270474FF00000704750EA54
:100A7000013005D111F0004008BF6FF00040704711
:100A80004FF00000704700BF80F0004002E000BF60
:100A900081F0004142001FBF5FEA410392EA030F69
:100AA0007FEA226C7FEA236C6AD04FEA1262D2EBB3
:100AB0001363C1BFD218414048404140B8BF5B42B8
:100AC000192B88BF704710F0004F40F4000020F051
:100AD0007F4018BF404211F0004F41F4000121F067
:100AE0007F4118BF494292EA030F3FD0A2F10102B1
:100AF00041FA03FC10EB0C00C3F1200301FA03F1EF
:100B000000F0004302D5494260EB4000B0F5000F11
:100B100013D3B0F1807F06D340084FEA310102F1D0
:100B20000102FE2A51D2B1F1004F40EBC25008BF82
:100B300020F0010040EA03007047490040EB00004C
:100B400010F4000FA2F10102EDD1B0FA80FCACF17B
:100B5000080CB2EB0C0200FA0CF0AABF00EBC2507A
:100B600052421843BCBFD0401843704792F0000F68
:100B700081F4000106BF80F400000132013BB5E7BB
:100B80004FEA41037FEA226C18BF7FEA236C21D031
:100B900092EA030F04D092F0000F08BF0846704796
:100BA00090EA010F1CBF0020704712F07F4F04D164
:100BB000400028BF40F00040704712F100723CBF77
:100BC00000F50000704700F0004343F0FE4040F4A1
:100BD000000070477FEA226216BF08467FEA23635F
:100BE0000146420206BF5FEA412390EA010F40F44A
:100BF000800070474FF0000304E000BF10F0004396
:100C000048BF40425FEA000C08BF704743F096437C
:100C100001464FF000001CE050EA010208BF704797
:100C20004FF000030AE000BF50EA010208BF70471E
:100C300011F0004302D5404261EB41015FEA010C33
:100C400002BF84460146002043F0B64308BFA3F12B
:100C50008053A3F50003BCFA8CF2083AA3EBC2530D
:100C600010DB01FA02FC634400FA02FCC2F120022C
:100C7000BCF1004F20FA02F243EB020008BF20F063
:100C80000100704702F1200201FA02FCC2F12002C9
:100C900050EA4C0021FA02F243EB020008BF20EABE
:100CA000DC7070474FF0FF0C1CEAD0521EBF1CEAEC
:100CB000D15392EA0C0F93EA0C0F6FD01A4480EADA
:100CC000010C400218BF5FEA41211ED04FF00063C3
:100CD00043EA501043EA5111A0FB01310CF00040EF
:100CE000B1F5000F3EBF490041EAD3715B0040EA15
:100CF000010062F17F02FD2A1DD8B3F1004F40EBE5
:100D0000C25008BF20F00100704790F0000F0CF0B7
:100D1000004C08BF49024CEA502040EA51207F3A7B
:100D2000C2BFD2F1FF0340EAC250704740F4000056
:100D30004FF00003013A5DDC12F1190FDCBF00F047
:100D400000407047C2F10002410021FA02F1C2F1F5
:100D5000200200FA02FC5FEA310040F1000053EA91
:100D60004C0308BF20EADC70704792F0000F00F0DF
:100D7000004C02BF400010F4000F013AF9D040EAE5
:100D80000C0093F0000F01F0004C02BF490011F479
:100D9000000F013BF9D041EA0C018FE70CEAD15377
:100DA00092EA0C0F18BF93EA0C0F0AD030F0004CF7
:100DB00018BF31F0004CD8D180EA010000F00040AB
:100DC000704790F0000F17BF90F0004F084691F069
:100DD000000F91F0004F14D092EA0C0F01D14202A3
:100DE0000FD193EA0C0F03D14B0218BF084608D16C
:100DF00080EA010000F0004040F0FE4040F40000B6
:100E0000704740F0FE4040F4400070474FF0FF0C48
:100E10001CEAD0521EBF1CEAD15392EA0C0F93EA8F
:100E20000C0F69D0A2EB030280EA010C49024FEAE1
:100E3000402037D04FF0805343EA111143EA10139A
:100E40000CF000408B4238BF5B0042F17D024FF452
:100E5000000C8B4224BF5B1A40EA0C00B3EB510F2D
:100E600024BFA3EB510340EA5C00B3EB910F24BF16
:100E7000A3EB910340EA9C00B3EBD10F24BFA3EB9B
:100E8000D10340EADC001B0118BF5FEA1C1CE0D163
:100E9000FD2A3FF650AF8B4240EBC25008BF20F016
:100EA000010070470CF0004C4CEA50207F32C2BF6A
:100EB000D2F1FF0340EAC250704740F400004FF007
:100EC0000003013A37E792F0000F00F0004C02BF38
:100ED000400010F4000F013AF9D040EA0C0093F002
:100EE000000F01F0004C02BF490011F4000F013B5C
:100EF000F9D041EA0C0195E70CEAD15392EA0C0FC4
:100F000008D142027FF47DAF93EA0C0F7FF470AFFB
:100F1000084676E793EA0C0F04D14B023FF44CAF3E
:100F200008466EE730F0004C18BF31F0004CCAD1D3
:100F300030F000427FF45CAF31F000437FF43CAF0F
:100F40005FE700BF70B54FF07C510546FFF7AAFE82
:100F5000124C0646A4EB650401462046FFF7A2FEAC
:100F60002146FFF79FFE01464FF07F50FFF790FDAF
:100F70002146FFF797FE04463146FFF793FE2146D0
:100F8000FFF790FE01464FF07F50FFF781FD2146AD
:100F9000FFF788FE2946FFF785FE70BDDF59375FF2
:100FA000094B10B51868000AFFF724FEFFF7CAFFC7
:100FB000064B1860FFF738FABDE8104002460B46B2
:100FC0000348044901F096BFFC010020F80100200D
:100FD000C4040020F846000810B594B01422002183
:100FE0000CA801F02FFB142200210DEB020001F0F0
:100FF00029FB1022002101A801F024FB02244FF458
:1010000080330122CDE91143CDE90A234FF4E013E7
:101010000AA80E92139300F0F7FE08B172B6FEE72D
:101020000F23CDE905344FF480630790CDE90830F4
:10103000214605A801F0C0F808B172B6FEE74FF4EA
:10104000004301A80194039301F072F908B172B64C
:10105000FEE714B010BD00007FB500F0CBF9FFF73C
:10106000BBFF364B364E9A690B2042F020029A6144
:101070009A69344D02F020020192019A9A69012482
:1010800042F004029A619A6902F004020292029A02
:101090005A6942F001025A6100225B69114603F06D
:1010A00001030093009B284BB36200F073FC0B20FC
:1010B00000F0A4FC254A00232A604FF46022284651
:1010C000CDE903330593AB602C732B75EA616B603C
:1010D0002C612E6200F0CAFB08B172B6FEE7CDE9C2
:1010E0000304059003A9284600F05AFA08B172B625
:1010F000FEE74FF4E133164C164AC4E90200C4E996
:1011000000230C232061C4E90530E061204601F092
:10111000E9F908B172B6FEE728464FF480720E492D
:1011200000F0F4FA0D4D2846FFF712F84FF0FF33A8
:1011300082B22946204601F003FAF4E7001002408B
:101140008002002010020020A10F000800240140AE
:101150004002002000380140C4020020C4040020E6
:1011600010B5064906480B78064A046832F8132081
:10117000013302FB02420B70026010BD000200202E
:10118000FC010020C402002072B6FEE70E4B82B0C4
:101190009A6942F001029A619A6902F00102009292
:1011A000009ADA6942F08052DA61DB69074A03F09B
:1011B00080530193019B536823F0E06343F0007375
:1011C000536002B0704700BF0010024000000140B1
:1011D00030B5054687B01022002102A801F032FA8E
:1011E0002A68214B9A423CD103F56C439A6902A9C3
:1011F00042F400729A619A691C4802F400720092EB
:10120000009A9A691A4C42F004029A619B69012281
:1012100003F004030193019B0323CDE9022300F0B3
:1012200013FD80204FF480720023C4E903024FF4C1
:10123000806C20220F492046C4E90013A360C4E952
:1012400005C2E36100F0FEFB08B1FFF79DFF00223D
:101250002C6212201146656200F09CFB122000F007
:10126000CDFB07B030BD00BF0024014000080140A5
:10127000800200200800024010B5044686B010220B
:10128000002102A801F0DEF92268174B9A4228D10A
:1012900003F558439A6902A942F480429A619A6917
:1012A000124802F480420092009A9A6942F00402C5
:1012B0009A619B694FF4007203F004030193019B50
:1012C0000223CDE902230323059300F0BDFC4FF474
:1012D000806100230548CDE9021302A9049300F0C0
:1012E000B3FC06B010BD00BF00380140000801404B
:1012F000FEE7FEE7FEE7FEE7FEE770477047704750
:1013000000F08AB8014800F00BBC00BF800200204A
:10131000014800F0C1B800BF100200200B4B10B50F
:101320001968024609B90A491960186809490A4C3E
:101330000244091B8A4206D901F05AF90C230360C2
:101340004FF0FF3010BD1A60FCE700BF0402002020
:10135000E00400200050002000040000704700005E
:10136000002103E00B4B5B58435004310A480B4B00
:1013700042189A42F6D30A4A02E0002342F8043B9C
:10138000084B9A42F9D3FFF7E9FF01F037F9FFF76D
:1013900063FE70477849000800000020DC0100204F
:1013A000DC010020E0040020FEE7000038B50E4B11
:1013B000054618784FF47A73B3FBF0F30B4A1068C4
:1013C000B0FBF3F000F028FB044658B90F2D09D804
:1013D000024629464FF0FF3000F0DCFA2046044B6D
:1013E0001D6038BD0120FCE7040000200000002043
:1013F00008000020074A08B51368032043F01003D3
:10140000136000F0B5FA0020FFF7D0FFFFF7BEFE33
:10141000002008BD00200240034A044B11681B78DD
:101420000B441360704700BFD80400200400002064
:10143000014B1868704700BFD8040020436A10B5FC
:101440009A6A12F0500F1BD19A6A42F400729A62A3
:101450001A68926802F46022B2F5602F0CD11A7BF0
:1014600052B99A6A22F480729A629A6AD2045EBF72
:101470009A6A42F001029A621846FFF771FE10BDA7
:101480001B6ABDE810401B6B1847704708B5406ADF
:10149000FFF7FBFF08BD7047036810B55A680446A4
:1014A000900627D51A68910724D5A26AD2065EBF96
:1014B000A26A42F40072A2629A6802F46022B2F553
:1014C000602F10D1227B72B95A6822F020025A6034
:1014D000A36A23F48073A362A36ADB045EBFA36ADA
:1014E00043F00103A3622046FFF73AFE6FF01202B9
:1014F00023681A6023685A68100630D51A685107A5
:101500002DD5A26AD2065EBFA26A42F40052A26240
:101510009A6802F4E042B2F5E04F0AD05A685005EA
:1015200016D49A6802F46022B2F5602F10D1227BA3
:1015300072B95A6822F080025A60A36A23F4805379
:10154000A362A36AD9055EBFA36A43F00103A36245
:10155000204600F00BFA6FF00C0223681A60236833
:101560005A6852060DD51B68DB070AD5A36A2046C8
:1015700043F48033A362FFF78EFF6FF0010223680C
:101580001A6010BD7047406A08B5836A43F0400393
:101590008362C36A43F00403C362FFF7F3FF08BD2D
:1015A000002373B5019390F82430012B6DD00123F3
:1015B0004D6880F82430062D026805EB85030C6821
:1015C00023D81F26556B053B9E4025EA060504FAE5
:1015D00003F32B435363092C8B6804EB44054FF052
:1015E00007012AD9D6681E3DA94026EA0101AB4071
:1015F0000B43D360A4F11003012B26D90023002252
:1016000080F82420184602B070BD0C2D4FF01F0545
:1016100009D8166B233B9D4026EA050504FA03F31F
:101620002B431363D7E7D66A413B9D4026EA050565
:1016300004FA03F32B43D362CDE71669A94026EAE7
:101640000101AB400B431361D4E7114B9A4216D111
:1016500093681B02D2D49368102C43F40003936068
:10166000CCD10C4B0C4A1B68B3FBF2F20A23534358
:101670000193019B002BC1D0019B013BF8E7836ADA
:1016800043F0200383620123B9E70223BAE700BFD6
:10169000002401400000002040420F00002373B5E9
:1016A0000193036804469A68D20702D5002002B06D
:1016B00070BD9A6842F001029A60124B124A1B6890
:1016C000B3FBF2F30193019BC3B9FFF7B1FE0646EA
:1016D00023689D6815F00105E8D1FFF7A9FE801B7E
:1016E0000228F5D9A36A84F8245043F01003A362BA
:1016F000E36A012043F00103E362D8E7019B013B69
:10170000E0E700BF0000002040420F002DE9D84173
:101710009046404B026804469A420F4602D03E492A
:101720008A4203D15B6813F4702F6ED194F8243091
:10173000012B6CD00123204684F82430FFF7AEFF44
:10174000064600285DD1A06A216820F47060324B03
:1017500020F0010040F480709942A06204D12D4A2B
:10176000536813F4702F3ED1A36A23F48013A3624D
:101770004B685A0505D5A36A23F4405343F48053BC
:10178000A362A36A206A13F4805318BFE36A3A463F
:1017900018BF23F00603E362002384F824301F4BB4
:1017A0004C3183621E4BC3621E4B03636FF0020316
:1017B00041F84C3C51F8443C43F4807341F8443CBC
:1017C000434600F06FF923689A6802F46022B2F58C
:1017D000602F9A680CBF42F4A00242F480129A6013
:1017E0003046BDE8D881A36A43F48013A3625368EE
:1017F0005B0541BFA06A20F4405040F48050A062D5
:10180000BFE7002384F82430EAE70126E8E7022650
:10181000E6E700BF00240140002801403D14000815
:101820008D1400088715000838B5036804469A68C7
:10183000D20701D4002038BD9A6822F001029A60D4
:10184000FFF7F6FD054623689B68DB07F2D5FFF737
:10185000EFFD401B0228F6D9A36A012043F01003D4
:10186000A362E36A43F00103E362E4E770B5044670
:10187000002870D0836A23B9C36280F82430FFF750
:10188000A7FC2046FFF7D0FFA36A13F0100FA36A4E
:1018900063D1002861D1E16923F48853626823F0A1
:1018A000020343F002030A43A168A362237BB1F55C
:1018B000807F42EA430237D0012914BF06464FF425
:1018C0008076257D012D06D183BBA369013B46EAC5
:1018D000433545F400662368B1F5807F5D6825F4E3
:1018E000694545EA06055D609E681E4D05EA0605E8
:1018F00045EA02059D6001D0012920D12169013905
:101900000905DD6A25F470052943D9629968164BEB
:101910000B409A4215D10023E362A36A23F003032C
:1019200043F00103A36270BD0E46CAE7A36A43F009
:101930002003A362E36A43F00103E362CBE70021E3
:10194000DFE7A36A23F0120343F01003A362E36A04
:1019500043F00103E3620120E5E743F01003A362D3
:10196000F9E700BFFDF7E1FFFE0E1FFF7047000023
:10197000074A0002D36800F4E06023F4E0631B042C
:101980001B0C43F0BF6343F400330343D360704741
:1019900000ED00E0174B70B5DC684FF0FF36C4F384
:1019A0000224C4F10705042D04F1040328BF042513
:1019B000062B98BF002406FA05F388BF033C21EAF2
:1019C0000303A34006FA04F422EA0404002843EACD
:1019D0000403A8BF00F160404FEA0313B8BF064AF2
:1019E000DBB2ABBF00F5614000F00F0080F80033C0
:1019F000135470BD00ED00E014ED00E0002808DB9A
:101A00000123420900F01F0003FA00F0014B43F8E4
:101A10002200704700E100E00138B0F1807F0AD277
:101A2000F021064B064A586082F823100020072256
:101A300098601A6070470120704700BF10E000E016
:101A400000ED00E010B530B314220168134B0B44D5
:101A5000B3FBF2F39B000364114B0A68C363D0E944
:101A600001342343C46822F47F522343046922F0E3
:101A7000300223434469234384692343C4692343D5
:101A800013430B600122002380F82120836380F838
:101A90002030184610BD0120FCE700BFF8FFFDBF55
:101AA00000000240F0B590F82040012C35D0012410
:101AB00090F8215080F82040A5424FF000064FF0EA
:101AC000020428D180F8214004688663266826F045
:101AD00001062660D0E90F67BD407560636043680A
:101AE0000568102BC36A0BBFA260A160E160E260D1
:101AF0004BB1236843F00E03002023602B6843F0B2
:101B000001032B60F0BD236823F0040323602368E6
:101B100043F00A03F0E780F820600220F2E70000BB
:101B200070B40425C66B026C346803689540254286
:101B3000196832D04D0730D51A6896065EBF1A680C
:101B400022F004021A603E4A934219D014329342A2
:101B500018D01432934217D01432934217D0143253
:101B6000934217D0143293420CBF4FF480034FF0CE
:101B70008063344A5360C36A002B5ED070BC184740
:101B80000423F6E74023F4E74FF48063F1E74FF4D2
:101B90008043EEE74FF48023EBE702259540254292
:101BA00035D08D0733D51A68940606D41A6822F00A
:101BB0000A021A60012280F82120214A934219D09A
:101BC0001432934218D01432934217D014329342F5
:101BD00017D01432934217D0143293420CBF4FF4F3
:101BE00000134FF00073174A5360002380F8203031
:101BF000836AC1E70223F6E72023F4E74FF400737A
:101C0000F1E74FF40053EEE74FF40033EBE708251C
:101C10009540254211D009070FD5196821F00E0112
:101C20001960012303FA02F27260836380F82130A5
:101C3000002380F82030036B9EE770BC704700BF24
:101C400008000240000002402DE9F74F002426461C
:101C5000654BDFF8A4C1DFF8A4E10A6832FA06F5A3
:101C600002D103B0BDE8F08F4FF0010808FA06F882
:101C700002EA080290457ED14D68122D00F0A9803D
:101C800000F28280022D00F0A18076D8002D00F0B5
:101C90008880012D00F098804FF00F09FF2A93BF34
:101CA000824606F18045083DD0F800B092BFB500ED
:101CB000D0F804B0AD0009FA05F82BEA080804FAD8
:101CC00005F588BF00F1040A48EA0505CAF8005086
:101CD000D1F804A01AF0805F4DD0444F26F00308DD
:101CE000BD6908F1804845F00105BD61BD6908F591
:101CF000803805F00105019506F0030B019D4FEAC0
:101D00008B0BD8F8085009FA0BF925EA0909384D68
:101D1000A84263D005F58065A84261D005F58065CD
:101D2000A8425FD005F58065A8420CBF03250425B5
:101D300005FA0BF545EA0905C8F808501D681AF4BC
:101D4000803F14BF154395431D605D681AF4003F42
:101D500014BF154395435D609D681AF4801F14BF3E
:101D6000154395439D60DD681AF4001F14BF2A4394
:101D700025EA0202DA6001366FE7032D22D0112D29
:101D80008AD1CC68043487E71A4FBD4209D012D8F3
:101D9000DFF86C904D4504D009F580394D457FF44E
:101DA0007BAF8C68C4B1012C0CBFC0F81080C0F8A8
:101DB0001480082470E76545F3D07545F1D0DFF84D
:101DC0004490EBE7002467E7CC6865E7CC6808340B
:101DD00062E7CC680C345FE704245DE70025A7E7E1
:101DE0000125A5E70225A3E70004014000100240F9
:101DF00000080140000021100000311000003210E6
:101E000000001110000022102DE9F341054608B929
:101E100001203CE00368DB0710D42B689F075DD4EA
:101E20002B68190700F194802B685A0700F1BE80D7
:101E3000E869002840F02C81002028E08F4C63687E
:101E400003F00C03042B07D0636803F00C03082B8A
:101E500009D16368DE0306D523689C03DDD56B6872
:101E6000002BDAD1D4E76B68B3F5803F12D1236839
:101E700043F480332360FFF7DBFA064623689803B8
:101E8000CBD4FFF7D5FA801B6428F7D9032002B022
:101E9000BDE8F0819BB9236823F480332360236875
:101EA00023F480232360FFF7C3FA064623689903CF
:101EB000B3D5FFF7BDFA801B6428F7D9E6E7B3F581
:101EC000A02F236803D143F480232360CFE723F4BA
:101ED00080332360236823F48023CBE7674C636857
:101EE00013F00C0F07D0636803F00C03082B10D11C
:101EF0006368DA030DD423689B0702D52B69012B95
:101F000086D123686A6923F0F80343EAC203236099
:101F100086E72A695A4B6AB101221A60FFF788FAEC
:101F2000064623689F07ECD4FFF782FA801B02283D
:101F3000F7D9ABE71A60FFF77BFA064623689807E4
:101F40007FF56EAFFFF774FA801B0228F6D99DE784
:101F5000AA694A4C4B4BDAB101221A60FFF768FAC2
:101F60000646636A9B070DD54FF4FA52464B1B6831
:101F7000B3FBF2F3019300BF019B5A1E0192002BA9
:101F8000F9D151E7FFF754FA801B0228E9D97DE720
:101F90001A60FFF74DFA0646636A9F077FF544AF64
:101FA000FFF746FA801B0228F6D96FE7334CE36946
:101FB000D80024D40127E36943F08053E361E36947
:101FC00003F080530093009B304E3368D90518D539
:101FD000EB68012B26D1236A43F001032362FFF74C
:101FE00027FA41F288368046236A9B073FD5002FA7
:101FF0003FF41EAFE36923F08053E36118E7002745
:10200000E2E7336843F480733360FFF711FA8046E8
:102010003368DA05DCD4FFF70BFAA0EB080064287C
:10202000F6D933E7ABB9236A41F2883823F00103CC
:102030002362236A23F004032362FFF7F9F90646BB
:10204000236A9807D3D5FFF7F3F9801B4045F7D9EA
:102050001CE7052B236A03D143F004032362BAE78C
:1020600023F001032362236A23F00403B6E7FFF79A
:10207000DFF9A0EB0800B042B6D907E70010024034
:1020800000004242800442420000002000700040F4
:102090002A4B5A681C4602F00C02082A3DD0002345
:1020A000274E022833602BD1FFF7C2F90746236879
:1020B00099011FD42B6AB3F5803F05D16268A968E6
:1020C00022F400320A436260696A62680B4322F4B8
:1020D00074121343636001233360FFF7A9F90546C7
:1020E00023689A013FF5A8AEFFF7A2F9401B02282A
:1020F000F6D9CBE6FFF79CF9C01B0228D7D9C5E675
:10210000FFF796F9054623689B017FF595AEFFF72B
:102110008FF9401B0228F6D9B8E601283FF4B7AE84
:1021200058682B6A00F480329A427FF471AE6B6A71
:1021300000F47010C01A18BF0120A8E60010024079
:102140006000424230B5184B87B002AC03F1100575
:10215000224618685968083303C2AB421446F7D1C7
:1021600040F201231149ADF804304B6803F00C0232
:10217000082A17D1C3F3834206A80244DB0312F8EE
:10218000102C0CD54B680A48C3F34043504306AAB1
:10219000134413F8143CB0FBF3F007B030BD05480E
:1021A0005043FAE70248F8E7E8460008001002400A
:1021B00000127A0000093D002DE9F0410D46044669
:1021C00010B90120BDE8F081444A136803F0070309
:1021D0008B4228D321688E0730D4CA0743D43F4AA4
:1021E000136803F00703AB4265D822683C4D12F038
:1021F000040F6CD1130706D56B68226923F4605372
:1022000043EAC2036B60FFF79DFF6B68354AC3F377
:102210000313D35CD840344B1860344B1868FFF775
:10222000C5F80020CEE7136823F007030B431360C3
:10223000136803F007038B42C3D1CBE7284B11F09F
:10224000040F1EBF5A6842F4E0625A60080742BF9A
:102250005A6842F460525A605A68A06822F0F0024C
:1022600002435A60B9E762681D4E012A33681AD1E9
:1022700013F4003FA5D0736841F2883823F00303BC
:1022800013437360FFF7D4F807467368626803F07E
:102290000C03B3EB820FA2D0FFF7CAF8C01B404576
:1022A000F3D903208EE7022A02D113F0007FE1E781
:1022B00013F0020FDEE7136823F007032B431360CC
:1022C000136803F00703AB427FF47BAF8DE76B68C5
:1022D000E16823F4E0630B436B608BE7002002406E
:1022E00000100240FF460008000000200800002007
:1022F000044B054A5B68C3F30223D35C034A1068AE
:10230000D8407047001002400F470008000000202E
:10231000044B054A5B68C3F3C223D35C034A1068CD
:10232000D8407047001002400F470008000000200E
:1023300003682DE9F341D907054620D5354CE369FB
:10234000DA0032D40127E36943F08053E361E369A3
:1023500003F080530193019B2F4E3368DB0526D594
:10236000236A13F4407336D1236A6A6823F44073F6
:10237000134323621FB1E36923F08053E3612868AC
:10238000830706D5234AA968536823F440430B43C7
:10239000536010F010001BD01E4AE96853680020FB
:1023A00023F480030B43536012E00027D4E7336823
:1023B00043F480733360FFF73BF880463368D805F9
:1023C000CED4FFF735F8A0EB08006428F6D9032037
:1023D00002B0BDE8F0816A6802F440729A42C3D04C
:1023E00001200E4A236A1060002023F4407110601F
:1023F0002162D907B8D5FFF71BF841F288380646A5
:10240000236A9A07B0D4FFF713F8801B4045F7D929
:10241000DDE700BF0010024000700040400442426F
:1024200010B504460368C1681A6922F440520A4391
:102430001A6182680069D9680243606921F4B05169
:1024400021F00C0102430A43DA605A69A16922F4BF
:1024500040720A435A610E4A934215D1FFF758FF62
:1024600019235843636864229B00B0FBF3F0B0FB70
:10247000F2F102FB11031B013233B3FBF2F32468C8
:1024800003EB0113A36010BDFFF732FFE8E700BFC5
:1024900000380140F8B504460E4617461D4621682F
:1024A0000B6836EA030301D1002014E06B1CF7D05F
:1024B00095B923680320DA6822F4D072DA605A6989
:1024C00022F001025A61202384F8393084F83A302E
:1024D000002384F83830F8BDFEF7AAFFC01B854200
:1024E000DDD2E6E710B5044640B390F8393003F08A
:1024F000FF021BB980F83820FEF7BEFE24232268B5
:1025000084F83930D368204623F40053D360FFF7B2
:1025100087FF236800201A6922F490421A615A69E1
:1025200022F02A025A61DA6842F40052DA6020236B
:10253000E06384F8393084F83A3010BD0120FCE7BC
:102540002DE9F843984690F839300446202B0E4682
:1025500091464AD1002946D0002A44D090F838301C
:10256000012B42D00123002580F838302123C56398
:1025700080F83930FEF75CFFA3680746B3F5805F4B
:10258000A4F82490A4F8269003D123690BB935460A
:102590001E46002384F83830E38C9BB253B943467F
:1025A0003A4640212046FFF775FF50B9202384F8B2
:1025B000393007E043463A4680212046FFF76AFF5C
:1025C00010B10320BDE8F88322684EB935F8023B0C
:1025D000C3F308035360E38C013B9BB2E384DBE766
:1025E00016F8013BF6E70120ECE70220EAE70000DD
:1025F000014B1868704700BF0C00002070B5002523
:102600000C4E0D4CA41BA410A54209D102F05EF89B
:1026100000250A4E0A4CA41BA410A54205D170BD8A
:1026200056F8253098470135EEE756F8253098479B
:102630000135F2E770490008704900087049000848
:102640007449000803460244934200D1704703F8DE
:10265000011BF9E7002B2DE9F0471E46BBBF03F134
:1026600000431E4600232D2388B0149FDDE9121A73
:1026700027F02007462F1446109D0B7004D0452FDD
:1026800000D10135022300E0032307AA049206AA21
:10269000CDE902A2CDE900352246334600F0D8FC50
:1026A000472F804602D1119BDB0726D5462F08EB2A
:1026B000050911D198F80030302B0AD100220023EF
:1026C00020463146FEF770F918B9C5F10105CAF880
:1026D0000050DAF8003099440022002320463146A9
:1026E000FEF762F938B93022079B4B4505D2591CD9
:1026F00007911A70F8E7CDF81C904046079B159A91
:10270000A3EB0803136008B0BDE8F087F7B5002914
:10271000B4BF2D232B230446B8BF4942092904F82E
:10272000022B437021DD0DF107031F460A2691FBA2
:10273000F6F506FB1511092D01F1300103F8011C16
:1027400003F1FF32294609DC3031023B02F8011C5B
:10275000BB42224604D3101A03B0F0BD1346E6E78D
:1027600013F8012B04F8012BF2E73023194483708E
:10277000021DC170EFE700002DE9F04F91B00C464B
:102780001A9F93461E46054601F016FA036818463E
:102790000993FDF7DDFC00230E933B680A90073395
:1027A00023F0070303F1080294F81880D4F800A07E
:1027B0003A60D3E90023C4E91223D4E9127929F05D
:1027C00000430B934FF0FF32A64B38460B99FEF7B0
:1027D0001DF968BB4FF0FF32A24B38460B99FEF74C
:1027E000F7F828BB0022002338464946FEF7E6F8F2
:1027F00010B12D2384F843309B4F9C4BB8F1470F09
:1028000098BF1F4603234FF0000923612AF00403F9
:10281000236000965B460FAA2146284600F0E2F9A5
:10282000013040F090804FF0FF3011B0BDE8F08FE4
:102830003A464B4638464946FEF7E8F810B18C4F09
:102840008C4BDBE763684AF48062591C0DA80EA923
:1028500040D1062363604FF0000C0DF13303CDE946
:10286000012363682260CDE9030800933A464B4692
:10287000CDE9051C2846FFF7EDFE08F0DF03472BE6
:10288000074609D10D9BD81C02DB6268934247DDE5
:10289000A8F102085FFA88F8B8F1650F0D9924D8FD
:1028A0000139424604F150000D91FFF72FFF0E9AB7
:1028B00081461318012A236102DC2268D10701D561
:1028C000013323619DF83330002BA2D02D2384F8EF
:1028D00043309EE7B8F1670F00F06E81B8F1470F03
:1028E000B9D1002BB7D10123B4E7B8F1660F19D1E4
:1028F000002963680CDD216113B92268D20702D573
:1029000001330B4423610D9B4FF00009A365D9E708
:1029100013B92268D00701D50233F3E70123F1E7A9
:102920004FF06708DDE90D32934205DB2268236131
:10293000D107E8D50133E5E7002BCCBF0123C3F174
:1029400002031344DEE723685A0507D423693A4695
:1029500059462846B047013029D164E7B8F1650FE0
:1029600040F2D780D4E9120100220023FEF71CF8C0
:1029700088B30123404A59462846B04701303FF406
:1029800052AFDDE90D239A4202DB2368D8070ED54A
:10299000DDE9092359462846B04701303FF443AFEB
:1029A000002704F11A080E9B013BBB4209DC236897
:1029B0009F0700F1FD80E0680F9B9842B8BF184662
:1029C00033E70123424659462846B04701303FF4D9
:1029D0002AAF0137E7E70D9B002B2BDC0123264AAA
:1029E00059462846B04701303FF41DAF0D9B23B92F
:1029F0000E9B13B92368D907D9D5DDE909235946B8
:102A00002846B04701303FF40EAF4FF0000804F104
:102A10001A090D9B5B42434501DC0E9B97E701239E
:102A20004A4659462846B04701303FF4FCAE08F10B
:102A30000108EEE70E9AA36D9A42A8BF1A46002A33
:102A4000904607DD134659463A462846B0470130BE
:102A50003FF4E9AE04F11A034FF0000A28EAE878DF
:102A60000B9315E0FFFFEF7F1B4700081747000897
:102A7000234700081F4700082747000801230B9A37
:102A800059462846B04701303FF4CDAE0AF1010A5D
:102A9000D4F85890A9EB08035345EFDCDDE90D238A
:102AA0009A424F4414DB2368DA0711D40E9B0D9928
:102AB000A3EB0902A3EB01099145A8BF9146B9F127
:102AC000000F0DDC002729EAE97904F11A0818E063
:102AD000DDE9092359462846B0470130E6D1A2E690
:102AE0004B463A4659462846B0470130EAD19AE665
:102AF0000123424659462846B04701303FF493AE81
:102B00000137DDE90D239B1AA3EB0903BB42EFDC80
:102B10004DE70E9A012A01DCDB0738D501233A463E
:102B200059462846B04701303FF47DAEDDE9092320
:102B300059462846B047013007F101073FF473AE0C
:102B4000D4E912010E9B002203F1FF380023FDF7A8
:102B50002BFFC0B943463A4659462846B047013094
:102B60000DD160E60123424659462846B047013060
:102B70003FF459AE01370E9B013BBB42F2DC4B46A2
:102B800004F15002E4E6002704F11A08F3E70123F8
:102B9000E1E70123424659462846B04701303FF459
:102BA00042AE0137E3680F9A9B1ABB42F1DC02E7A1
:102BB000002704F11908F5E7002B3FF494AE4FF01D
:102BC000000CCDE9051C0DF133012260CDE90308AD
:102BD000CDE9012100933A464B462846FFF73AFDDE
:102BE00007464FE62DE9F04791461F468A680B6974
:102BF00006469342B8BF1346C9F8003091F8432007
:102C00000C46DDF8208012B10133C9F8003023688A
:102C1000990642BFD9F800300233C9F80030256860
:102C200015F0060507D104F1190AE368D9F8002068
:102C30009B1AAB4229DC94F843302268003318BF5A
:102C4000012392062ED404F1430239463046C04790
:102C5000013021D02368E56803F00603042B18BF78
:102C60000025D9F800204FF0000908BFAD1AA3686D
:102C7000226908BF25EAE5759342C4BF9B1AED1887
:102C80001A344D451AD1002008E001235246394636
:102C90003046C047013003D14FF0FF30BDE8F08728
:102CA0000135C2E73020E11881F843005A1C94F83E
:102CB00045102244023382F84310C4E70123224620
:102CC00039463046C0470130E6D009F10109D8E75E
:102CD0002DE9F04301F1430C0C46097E85B06E29C5
:102CE0001746064698460C9A00F0B38022D863290E
:102CF00036D00AD8002900F0B980582900F0838026
:102D000004F1420584F8421032E0642901D06929B7
:102D1000F6D120681368050603F104012AD51B6863
:102D20001160002B03DA2D225B4284F843206F48A8
:102D30000A2239E0732900F09D8008D86F2920D03D
:102D40007029DDD1236843F02003236003E0752957
:102D500017D07829D4D17823654884F8453055E0D8
:102D6000136804F14205191D1B68116084F8423094
:102D700001238CE01B6810F0400F116018BF1BB2DC
:102D8000CFE713682568181D1060280601D51B6859
:102D900002E06806FBD51B886F2914BF0A220822AF
:102DA0005248002184F843106568002DA560C0F2E8
:102DB0009580216821F004012160002B3DD1002D78
:102DC00040F08E806546082A0BD12368DB0708D5C2
:102DD000236962689A42DEBF302305F8013C05F1A1
:102DE000FF35ACEB05032361CDF800803B4603AA19
:102DF00021463046FFF7F6FE01304DD14FF0FF304F
:102E000005B0BDE8F083394884F84510136821689F
:102E10001D1D1B6815600A060BD5CA0744BF41F08B
:102E2000200121601BB9226822F0200222601022BA
:102E3000B7E74D0648BF9BB2EFE76546B3FBF2F13B
:102E400002FB1133C35C05F8013D0B460029F5D1A7
:102E5000B9E713682568181D6169106028061B68AA
:102E600001D5196002E06A06FBD51980002365468A
:102E70002361B9E71368191D11601D68626800219C
:102E8000284600F0AFFE08B1401B60606368236114
:102E9000002384F84330A7E723692A4639463046A1
:102EA000C0470130AAD023689B0713D4E068039B76
:102EB0009842B8BF1846A3E701234A463946304630
:102EC000C04701309AD00135E368039A9B1AAB42A0
:102ED000F2DCEBE7002504F11909F5E7002BACD192
:102EE000037804F1420584F842306CE72947000872
:102EF0003A4700080EB46FF0004100B59CB01DAB1E
:102F000002900690079104910848094953F8042B50
:102F10000591006802A9019301F068FA0022029B62
:102F20001A701CB05DF804EB03B070470C00002071
:102F30000802FFFF2DE9F74F03690C698046A342A1
:102F4000C0F28480013C01F1140700F1140657F827
:102F5000245056F824000135B0FBF5F54FEA840CF7
:102F600006EB0C0307EB0C0901939DB34FF0000A2D
:102F70003846B646D34650F8042B93B205FB03A35C
:102F8000120C4FEA134A05FB02A29BB2ABEB030300
:102F9000DEF800B04FEA124A1FFA8BFB5B441FFABF
:102FA00082FBDEF800208145CBEB124202EB23428C
:102FB0009BB243EA02434FEA224B4EF8043BDAD27B
:102FC00056F80C3033B9019B043B9E421A4631D36C
:102FD000C8F81040404601F033F8002826DB3046A0
:102FE0004FF0000C013557F8041BD0F800E08BB20D
:102FF000ACEB03031FFA8EF213440A0CC2EB1E4221
:1030000002EB23429BB243EA0243B9454FEA224C0A
:1030100040F8043BE7D256F8242006EB84032AB993
:10302000043B9E421A460BD3C8F81040284603B012
:10303000BDE8F08F1268043B002AC9D1013CC4E707
:103040001268043B002AEFD1013CEAE70020EEE7DA
:103050002DE9F04F16461F46456A95B00446DDF847
:103060008480CDE902673DB9102000F0B3FD6062B5
:10307000C0E901550560C560636A196851B15A68B5
:10308000012393404A608B60204600F0F8FD002247
:10309000636A1A603B1EAFBF0023012223F0004386
:1030A0000393ACBFC8F80030C8F80020AE4BDDF881
:1030B0000C8033EA08031BD142F20F73209A13608D
:1030C000029B23B9C8F31300002800F04585229B1A
:1030D00053B9A64B21E0A64B06930833229A1360FE
:1030E000069815B0BDE8F08FA04B06930333F5E7C3
:1030F000DDE902670022002330463946FDF754FC23
:10310000824660B10123209A1360229B002B00F0BD
:103110002085984B229A1360013B0693E0E712AB9F
:10312000019313AB009332463B46204601F000F872
:10313000C8F30A558346002D7DD0B046C7F313036C
:1031400043F07F5949F44019A5F2FF35CDF840A06E
:103150000022894B40464946FDF706F87CA3D3E997
:103160000023FDF7B9F97CA3D3E90023FCF7FEFFA8
:10317000064628460F46FDF745F979A3D3E9002313
:10318000FDF7AAF902460B4630463946FCF7EEFF3A
:1031900006460F46FDF750FC0022824600233046CB
:1031A0003946FDF70BFC48B15046FDF72BF9324686
:1031B0003B46FDF7F9FB08B90AF1FF3ABAF1160FE1
:1031C0005AD8DDE902236D4901EBCA01D1E90001BA
:1031D000FDF712FC002851D000230AF1FF3A0D93AD
:1031E000129B5D1B6B1E079343BF0023C5F10109B2
:1031F00007934FF00009BAF1000F41DB079BCDF8B0
:1032000030A053440793002308931E9B092B00F220
:103210008F80052BC4BF043B1E931E9BC8BF002597
:10322000A3F10203D8BF0125032B00F28D80DFE854
:1032300003F07B7D2F6FDDE912531D4405F2324010
:10324000202813DDC0F14000029B08FA00F805F2C7
:10325000124023FA00F048EA0000FDF7C3F801230A
:103260008046A1F1F879013D109371E7029BC0F10E
:10327000200003FA00F0F0E70123B0E70D90AFE77C
:10328000CAF1000308930023A9EB0A090C93BCE7D9
:10329000012309931F9B002B74DD984604930022A1
:1032A000666A7260042202F11400984271686ED955
:1032B000204600F0B0FC636A30601B68B8F10E0F66
:1032C000069300F2ED80002D00F0EA80DDE9022394
:1032D000BAF1000FCDE90E2377DD284A0AF00F037B
:1032E0004FEA2A1602EBC303F006D3E90023CDE927
:1032F0000A2368D5DDE90E01214B0325D3E9082314
:10330000FDF714FACDE9020106F00F061C4F4FE05D
:10331000012309931F9B534403F10108049343467F
:10332000012BB8BF0123BAE70023B2E70023F0E77F
:103330000125002309951E934FF0FF3300220493CB
:10334000984612231F92AAE701230993F4E700BFCE
:1033500061436F63A787D23FB3C8608B288AC63F9B
:10336000FB799F501344D33F0000F07F544700087F
:103370004B470008284700080000F83F8047000836
:10338000584700080123049398461A46DAE70131AA
:103390007160520087E7F10708D5DDE90A01D7E936
:1033A0000023FDF799F8CDE90A01013576100837B9
:1033B000002EF0D1DDE90A23DDE90201FDF7B6F9BF
:1033C000CDE902011BE00225A0E700F0A480DDE9C1
:1033D0000E01CAF10006A04B06F00F0203EBC20378
:1033E000D3E90023FDF778F802250023CDE9020197
:1033F0009A4F3611002E40F08380002BE0D10D9BB8
:10340000002B00F08A80DDE90223CDE90A23DDE903
:103410000A010022924BFDF7D1FA00287DD0B8F1C5
:10342000000F7AD0049B002B36DDDDE90A01002273
:103430008C4BFDF751F8CDE90201049E0AF1FF37EC
:1034400001352846FCF7DEFFDDE90223FDF744F8ED
:103450000022854BFCF78AFEA1F15075CDE90A01E7
:103460000B95002E5CD1DDE9020100227F4BFCF7B9
:103470007BFE0A9A2B46CDE90201FDF7BDFA002832
:1034800040F08182DDE902010A9A05F10043FDF76F
:1034900095FA002840F07582DDE90E23CDE902237C
:1034A000139B002BC0F24B81BAF10E0F00F3478142
:1034B000694B03EBCA03D3E90023CDE904231F9B27
:1034C000002B80F2D780B8F1000F00F3D38040F0DA
:1034D0005782DDE904010022644BFCF7FDFFDDE9C2
:1034E0000223FDF77FFA46464746002840F02D822A
:1034F000069B069A5D1C31230AF1010A137028E22B
:10350000F20705D5D7E90023FCF7E6FF01230135D3
:10351000761008376EE7022571E75746464690E772
:103520004D4B03EBC60353E90201099B002B48D026
:1035300002460B4600204E49FDF7F8F8DDE90A2364
:10354000FCF712FECDE90A01069DDDE90201FDF757
:1035500073FA1190FCF756FF02460B46DDE90201B3
:10356000FCF702FE119BCDE90201303305F8013B67
:10357000DDE90A23FDF722FA002863D1DDE9022301
:1035800000203749FCF7F0FDDDE90A23FDF716FAC4
:10359000002840F0B580069BEB1A9E427FF77CAF77
:1035A000DDE90A0100222F4BFCF796FF0022CDE94E
:1035B0000A01DDE902012B4BFCF78EFFCDE9020188
:1035C000C3E7DDE90A23FCF787FF069BCDE90A0183
:1035D0009D191E46DDE90201FDF72EFA1190FCF758
:1035E00011FF02460B46DDE90201FCF7BDFD119B10
:1035F000CDE90201303306F8013BAE424FF0000244
:1036000024D1DDE90A011A4BFCF7B0FD02460B4656
:10361000DDE90201FDF7F0F9002871D1DDE90A23A7
:1036200000201349FCF7A0FD02460B46DDE902012C
:10363000FDF7C4F900283FF42FAF15F8013C6A1ECE
:10364000302B01D0BA464AE01546F6E7054BFCF7A9
:1036500043FFCDE90201BDE7804700085847000855
:103660000000F03F0000244000001C400000144017
:103670000000E03F069DDDE90267DDE904233046F6
:103680003946FDF753F8FDF7D7F98146FCF7BAFE46
:10369000DDE90423FCF720FF02460B46304639469D
:1036A000FCF762FD09F1300605F8016B069E024643
:1036B000AE1BB0450B4635D1FCF758FDDDE90423C0
:1036C00006460F46FDF798F9C8B9DDE904233046F0
:1036D0003946FDF769F910B119F0010F0FD15946BC
:1036E000204600F0CCFA0023209A2B700AF1010347
:1036F0001360229B002B3FF4F3AC1D60F0E45746AF
:1037000015F8012C6B1E392A06D1069A9A4207D168
:1037100030231370134601371A7801321A7091E77B
:103720001D46EDE70022994BFCF7D6FE0022002350
:1037300006460F46FDF738F900289ED0CFE7099AD4
:10374000002A00F088801E9A012A6DDC109A002A57
:1037500066D003F233434D46089E079A01211A446E
:1037600020469944079200F02AFB0746002D0BDD06
:10377000079B002B08DDAB42A8BF2B46079AA9EB9D
:103780000309ED1AD31A0793089BEBB1099B002B91
:1037900065D08EB139463246204600F0AFFB5A461E
:1037A00001460746204600F013FB59460A90204682
:1037B00000F065FA0A9B9B46089B9A1B04D0594669
:1037C000204600F09BFB83460121204600F0F7FADB
:1037D0000C9B0646002B00F0C6811A460146204687
:1037E00000F08CFB1E9B0646012B3EDC029B002B4F
:1037F00037D1039BC3F31303002B34D1039B23F076
:1038000000431B0D1B052BB1079B09F10109013377
:103810000793012308930C9B002B28D101202EE055
:10382000129BC3F1360396E7089B08F1FF36B342BB
:10383000B7BF089B9E1BF21A0C9BBFBF08969B1834
:103840000C930026B8F1000FB9BFA9EB08050023BF
:103850004D46434681E7089E4D46099F86E7089AF4
:10386000ADE70023D6E7029BD4E700230893336932
:1038700006EB8303186900F054FAC0F12000079B9F
:10388000184410F01F0047D0C0F12003042B3BDD8B
:10389000079BC0F11C008144054403440793B9F120
:1038A000000F05DD59464A46204600F075FB834669
:1038B000079B002B05DD31461A46204600F06CFBC5
:1038C00006460D9B53B33146584600F0B9FB00281D
:1038D00024DA002359460A22204600F0E7F9099B22
:1038E0000AF1FF3A8346002B00F044810023394659
:1038F0000A22204600F0DAF9049B0746002B4DDC33
:103900001E9B022B4ADD11E0C9D0079A1C331A44D2
:1039100099441D441346C1E70346F6E7B8F1000F8A
:1039200036DC1E9B022B33DDCDF81080049B63B97F
:1039300031460522204600F0B9F9014606465846B0
:1039400000F07EFB00283FF7D3AD1F9B069D6FEA7A
:10395000030A4FF000093146204600F090F9002F8D
:103960003FF4BDAEB9F1000F05D0B94503D04946CB
:10397000204600F084F93946204600F080F9AEE692
:1039800000263746E1E7BA463746B1E50000244055
:10399000099BCDF81080002B00F0F380002D05DD91
:1039A00039462A46204600F0F7FA0746089B002BC6
:1039B0004CD07968204600F02EF905463A6907F1A7
:1039C0000C01023292000C3000F01AF90122294653
:1039D000204600F0E1FAB9460746069B0793029B92
:1039E00003F00103089331465846FFF7A3FA49460E
:1039F000054600F13008584600F022FB3A46029096
:103A00003146204600F036FBC368024603BB014640
:103A10000990584600F014FB0346099A11462046C7
:103A2000099300F02CF9099BA3B91E9A92B9089A40
:103A300082B9B8F1390F29D0029B002B01DD05F1C5
:103A40003108079B5D1C83F8008084E73846C2E795
:103A50000123E3E7029A002A04DB23D11E9A0ABB62
:103A6000089AFAB9002BECDD59460122204600F0F5
:103A700093FA3146834600F0E3FA002803DCE0D1F4
:103A800018F0010FDDD0B8F1390FD8D1079B079A94
:103A90005D1C3923137015F8013C6A1E392B4DD07B
:103AA000013352E0079A002B02F1010506DDB8F15F
:103AB000390FEBD008F10108079BC4E7069B049A75
:103AC000EB1A934205F8018C21D0594600230A22B3
:103AD000204600F0EBF8B94583464FF000034FF065
:103AE0000A024946204605D100F0E0F88146074623
:103AF000079578E700F0DAF83946814600230A2274
:103B0000204600F0D3F80746F2E74FF00009594687
:103B10000122204600F040FA3146834600F090FA38
:103B20000028B8DC02D118F0010FB4D115F8013C1F
:103B30006A1E302B7FF40FAF1546F7E7069B9342C2
:103B400005D13123069A0AF1010A137003E71546DD
:103B5000A1E7174BFFF7E1BA229B002B7FF4BBAA2A
:103B6000144BFFF7DABA1E9B012B7FF73FAE0C9B7D
:103B7000089353E6049B002B03DC1E9B022B3FF7AC
:103B8000D5AE069D31465846FFF7D4F9069B00F1A5
:103B9000300805F8018B049AEB1A9A42B5DD5946B4
:103BA00000230A22204600F081F88346EAE700BF9E
:103BB000274700084B470008044B1B68186A044B52
:103BC000002808BF1846F030704700BF0C000020E6
:103BD00070000020024B0146186800F053BB00BF84
:103BE0000C00002010B5C9B202449042034601D136
:103BF000002303E01C7801308C42F6D1184610BD3A
:103C000010B5431E0A44914200D110BD11F8014B7A
:103C100003F8014FF7E770B5456A04460E463DB913
:103C20001020FFF7D7FF6062C0E901550560C5604D
:103C3000656AEB6883B1636ADB6853F82600B8B93C
:103C4000012101FA06F56A1D9200204600F0BFFA34
:103C500060B1C0E901650EE021220421204600F098
:103C6000B6FA636AE860DB68002BE4D1002070BD1F
:103C7000026843F826200023C0E90333F7E770B554
:103C8000446A06460D463CB91020FFF7A3FF706258
:103C9000C0E901440460C4603DB1736A6A68DB68CE
:103CA00053F82210296043F8225070BD2DE9F041ED
:103CB0001F4606460C4600230D6901F1140CDCF882
:103CC0000000013381B202FB0171000C0F0C02FBFA
:103CD000007089B201EB00419D424FEA10474CF859
:103CE000041BECDCD7B1A368AB4212DC6168304640
:103CF0000131FFF790FF8046226904F10C01023286
:103D000092000C30FFF77CFF21463046FFF7B7FFEB
:103D1000444604EB850301355F6125612046BDE81B
:103D2000F081020C12040346B2B90304102013F010
:103D30007F4F04BF1B02083013F0704F04BF1B01FC
:103D4000043013F0404F04BF9B000230002B06DB11
:103D50005B0003D5013070470020E8E72020704762
:103D60000368014613F007020BD0DA0723D4980743
:103D700049BF5B089B0801200B605CBF0B60022001
:103D8000704798B2A8B910201B0C13F0FF0F04BFA6
:103D90001B0A08301A0704BF1B0904309A0704BF26
:103DA0009B080230DA0702D45B0806D001300B60B2
:103DB00070471046E9E7002070472020704710B593
:103DC0000C460121FFF727FF01224461026110BD6B
:103DD0002DE9F74F14460A69236988469A42BEBF07
:103DE0000B46A0461C46D8F81070D4F81090D8F8AE
:103DF0000830D8F8041007EB0906B342B8BF013108
:103E0000FFF709FF00F114052B46002205EB860E93
:103E1000734516D304F1140208F1140102EB89036F
:103E200001EB87070093009B019293420CD8002E70
:103E300003DD5EF8043D002B5DD0066103B0BDE8F4
:103E4000F08F43F8042BE3E7B2F800B0BBF1000FAA
:103E500023D08946AC464FF0000859F8044BDCF8F3
:103E600000A0A3B21FFA8AFA0BFB03A34FEA144A7D
:103E7000DCF8004043444FEA14480BFB0A84E24656
:103E800004EB13449BB243EA04434F454FEA144802
:103E90004AF8043B2BD8CCF80480019B0432B3F8D9
:103EA00002A0BAF1000F20D08946A8464FF0000BBF
:103EB0002B68B9F800C0B8F802409BB20AFB0C446A
:103EC000C4465C4443EA04434CF8043B59F8043BC1
:103ED000B8F804B01B0C0AFB03B34F4503EB1443C3
:103EE0004FEA134B05D8C8F8043004359BE7D44695
:103EF000B3E7E046DDE7013E99E700002DE9F8432E
:103F0000154612F0030206460F4607D0214C013A2F
:103F1000002354F82220FFF7C9FE0746AD1035D024
:103F2000746A3CB91020FFF755FE7062C0E9014485
:103F30000460C460D6F82480D8F808404CB940F238
:103F400071213046FFF73BFF00230446C8F8080004
:103F500003604FF00008EB070AD539462246304689
:103F6000FFF736FF814639463046FFF788FE4F4659
:103F70006D100BD0206838B9224621463046FFF735
:103F800027FF2060C0F800800446E4E73846BDE81B
:103F9000F88300BF484800082DE9F0470C46074663
:103FA000164623694FEA621A0AEB03094968A368B7
:103FB00009F10105AB4232DB3846FFF72CFE002346
:103FC00080461A4600F1140153452BDB20692AEA8A
:103FD000EA7A04F1140316F01F0201EB8A0103EBE5
:103FE000800C25D00020C2F1200E8A461E68964023
:103FF00030434AF8040B53F8040B9C4520FA0EF0AA
:1040000014D8486008B109F10205013D3846C8F8E6
:1040100010502146FFF733FE4046BDE8F0870131DE
:104020005B00C7E741F823200133CDE75146DCE7C9
:10403000043953F8042B9C4541F8042FF9D8E4E7E0
:1040400003690A6930B59B1A0CD1920014301431FF
:104050008418114454F8045D51F8042D954203D09E
:1040600005D30123184630BDA042F3D3FAE74FF041
:10407000FF33F7E72DE9F0470D460746114628467E
:104080001446FFF7DDFF061E08D131463846FFF71C
:10409000C2FD0123C0E90436BDE8F087A4BF234672
:1040A0002C4638466168A6BF1D4600260126FFF74C
:1040B000B2FD4FF0000EC6602B69266904F11402B0
:1040C00005F1140902EB860709EB830800F11401DE
:1040D00052F804AB59F8045B1FFA8AF37344ACB28C
:1040E0001B1B2C0CC4EB1A4404EB23449BB24FEA79
:1040F000244EC84543EA0444944641F8044BE7D8AB
:10410000BC4504D351F8043D83B10661C4E75CF8B3
:10411000044BA2B27244131403EB144392B242EA6A
:1041200003424FEA234E41F8042BE9E7013EE9E759
:104130002DE9F3411C46DDE9086501219046FFF7B2
:104140006AFDC4F31302C4F30A54074634BB019258
:10415000B8F1000227D002A840F8082DFFF700FEB2
:104160000099F0B1019AC0F1200302FA03F30B4366
:10417000C2407B610192019B002B14BF02210121EF
:10418000BB613961C4B1A4F2334404443460C0F16A
:1041900035002860384602B0BDE8F08142F4801254
:1041A000D5E77961E7E701A8FFF7DAFD0121019B77
:1041B00039617B612030E5E7A0F2324007EB8103F3
:1041C00030601869FFF7ADFDC0EB4110E1E738B58D
:1041D00002FB01F4214600F055F8054618B12246CD
:1041E0000021FEF72FFA284638BD000038B50546F5
:1041F000002943D051F8043C0C1F002BB8BFE41831
:1042000000F027FA1E4A1368104633B96360146041
:104210002846BDE8384000F01DBAA3420BD92168FA
:104220006218934201BF1A685B685218226063608B
:104230000460EDE713465A680AB1A242FAD9196838
:104240005818A0420BD120680144581882421960C6
:10425000DED110685268014419605A60D8E702D96B
:104260000C232B60D4E7206821188A4201BF116813
:1042700052680918216062605C60C9E738BD00BF00
:104280000802002070B5CD1C25F0030508350C2D63
:1042900038BF0C25002D064601DBA94203D90C23AB
:1042A0003360002070BD00F0D4F9214A1468214623
:1042B00091B9204C23681BB9304600F08FF920607B
:1042C0002946304600F08AF9431C24D10C2330469D
:1042D000336000F0BFF9E4E70B685B1B18D40B2BCD
:1042E0000FD90B60CC18CD50304600F0B3F904F173
:1042F0000B00231D20F00700C31AD3D05A42E2500E
:10430000D0E74B688C4216BF636013600C46EBE746
:104310000C464968CCE7C41C24F00304A04205D035
:10432000211A304600F05AF90130CFD02560DBE782
:10433000080200200C0200202DE9F0478E6882461A
:104340009E420C469046994637D88A8912F4906F5F
:1043500031D00223256809696F1A656905EB4505A7
:1043600095FBF3F509F101033B449D4238BF1D461F
:10437000530530D52946FFF785FF064650B90C2373
:104380004FF0FF30CAF80030A38943F04003A38107
:10439000BDE8F0873A462169FFF732FCA38923F490
:1043A000906343F08003A38126613E4426604E461D
:1043B0006561ED1BA5604E4500D94E46324641462B
:1043C000206800F02DF9A36800209B1BA3602368E0
:1043D0001E442660DCE72A4600F03DF90646002828
:1043E000E2D121695046FFF701FFC8E72DE9F04F00
:1043F0001D468B899DB01F0680460C4616460FD57C
:104400000B696BB94021FFF73DFF2060206128B99F
:104410000C23C8F800304FF0FF30C8E04023636140
:104420000023099320238DF8293030234FF0010B0E
:104430008DF82A30039537463D4615F8013B0BB100
:10444000252B3ED1B7EB060A0BD053463246214608
:104450004046FFF771FF013000F0A480099B5344F0
:1044600009933B78002B00F09D8000234FF0FF3232
:10447000CDE90523049307938DF853301A932F4603
:10448000052217F8011B5048FFF7ACFB049BD0B97D
:10449000D90644BF20228DF853201A0744BF2B228F
:1044A0008DF853202A782A2A15D02F4600200A2575
:1044B000079A394611F8013B303B092B4DD9B8B169
:1044C0000FE02F46B8E7404A3D46801A0BFA00F04D
:1044D00018430490D3E7039A111D12680391002A30
:1044E00001DB079204E0524243F002030792049377
:1044F0003B782E2B0CD17B782A2B33D1039B0237B0
:104500001A1D1B680392002BB8BF4FF0FF330593B1
:104510002E4D032239782846FFF764FB38B140233B
:10452000401B03FA00F0049B0137034304933978DE
:10453000062227487E1C8DF82810FFF753FB002821
:1045400038D0244B13BB039B073323F007030833F6
:104550000393099B4B4409936DE705FB023201204D
:104560000F46A6E700230A2519460137059338466A
:1045700010F8012B303A092A03D9002BC8D0059135
:10458000C6E705FB012101230746F0E703AB0093D3
:104590002246114B04A94046FEF7EEF8B0F1FF3F6A
:1045A0008146D6D1A3895B063FF535AF09981DB08A
:1045B000BDE8F08F03AB00932246074B04A94046A9
:1045C000FEF786FBEAE700BF544800085A48000897
:1045D0005E480008792700083943000838B50023F1
:1045E000054C054608462360FCF798FE431C02D1A3
:1045F000236803B12B6038BDDC04002082B001B910
:1046000001A942B14BB113780B601278101C18BF8E
:10461000012002B070471046FBE76FF00100F8E799
:10462000884210B501EB020307D8421E99420AD016
:1046300011F8014B02F8014FF8E78342F5D98118D0
:10464000D21AD34200D110BD13F8014D01F8014D2B
:10465000F7E770477047F8B5074614460E4621B98C
:10466000BDE8F8401146FFF70DBE22B9FFF7BEFDC9
:1046700025462846F8BD00F021F8A0420FD2214679
:104680003846FFF7FFFD05460028F2D031462246A6
:10469000FFF7B6FA31463846FFF7A8FDE9E7354699
:1046A000E7E749B1FF2A8BBF8A230A700360012024
:1046B00088BF4FF0FF3070470846704751F8043C00
:1046C000181F002BBCBF0B58C0187047F8B500BFAF
:1046D000F8BC08BC9E467047F8B500BFF8BC08BCE3
:0446E0009E4670473B
:1046E80002030405060708090A0B0C0D0E0F10102B
:1046F800252E36660D0A00000000000000000001AB
:104708000203040607080900000000010203044927
:104718004E4600696E66004E414E006E616E003076
:104728000030313233343536373839414243444525
:104738004600303132333435363738396162636494
:10474800656600496E66696E697479004E614E004F
:104758000080E03779C34143176E05B5B5B8934675
:10476800F5F93FE9034F384D321D30F94877825A41
:104778003CBF737FDD4F1575000000000000F03F5F
:104788000000000000002440000000000000594024
:104798000000000000408F40000000000088C34077
:1047A80000000000006AF8400000000080842E41EC
:1047B80000000000D01263410000000084D7974138
:1047C8000000000065CDCD41000000205FA002423E
:1047D800000000E876483742000000A2941A6D42B3
:1047E800000040E59C30A2420000901EC4BCD642A6
:1047F80000003426F56B0C430080E03779C3414351
:1048080000A0D8855734764300C84E676DC1AB43C6
:10481800003D9160E458E143408CB5781DAF1544E4
:1048280050EFE2D6E41A4B4492D54D06CFF08044BF
:10483800F64AE1C7022DB544B49DD9794378EA44D4
:1048480005000000190000007D000000232D302B1A
:104858002000686C4C006566674546470043005079
:104868004F534958002E00002020202020202020CF
:104878002028282828282020202020202020202008
:104888002020202020202020881010101010101028
:104898001010101010101010040404040404040470
:1048A8000404101010101010104141414141410101
:1048B80001010101010101010101010101010101E0
:1048C80001010110101010101042424242424202EF
:1048D80002020202020202020202020202020202B0
:1048E800020202101010102000000000000000005A
:1048F80000000000000000000000000000000000B0
:10490800000000000000000000000000000000009F
:10491800000000000000000000000000000000008F
:10492800000000000000000000000000000000007F
:10493800000000000000000000000000000000006F
:10494800000000000000000000000000000000005F
:10495800000000000000000000000000000000004F
:08496800000000000000000047
:044970003501000805
:044974001101000825
:104978000024F400010000001000000010000020D6
:10498800000000000000000000000000000000001F
:10499800000000000000000000000000000000000F
:1049A80000000000000000000000000000000000FF
:1049B80000000000000000000000000000000000EF
:1049C80000000000000000000000000000000000DF
:1049D80000000000000000000000000000000000CF
:1049E800430000000000000000000000000000007C
:1049F80000000000000000000000000000000000AF
:104A0800430000000000000000000000000000005B
:104A1800000000000000000000000000000000008E
:104A2800430000000000000000000000000000003B
:104A3800000000000000000000000000000000006E
:104A4800430000000000000000000000000000001B
:104A5800000000000000000000000000000000004E
:104A680043000000000000000000000000000000FB
:104A7800000000000000000000000000000000002E
:104A880043000000000000000000000000000000DB
:104A9800000000000000000000000000000000000E
:104AA80043000000000000000000000000000000BB
:104AB80000000000000000000000000000000000EE
:104AC800A3460008FD450008000000006F480008E4
:104AD8006D480008FE460008FE460008FE4600082D
:104AE800FE460008FE460008FE460008FE4600088E
:104AF800FE460008FE460008FFFFFFFFFFFFFFFF1E
:104B0800FFFFFFFFFFFF0000010041534349490039
:104B1800000000000000000000000000000000008D
:104B28000000000000000000000041534349490014
:104B3800000000000000000000000000000000006D
:0C4B480000000000000000000000000061
:04000005080013617B
:00000001FF
